{
  "transactions": [
    {
      "hash": "0x31d209e3298935fd892997b2973f8e19cde36f0e49de1916757315976bbc3072",
      "transactionType": "CALL",
      "contractName": null,
      "contractAddress": "0x21aa0ecb3f3f54cd68f7982dc81c44e42e770fe3",
      "function": "mintNFT(string)",
      "arguments": [
        "ipfs://bafybeig37ioir76s7mg5oobetncojcm3c3hxasyd4rvid4jqhy4gkaheg4/?filename=0-PUG.json"
      ],
      "transaction": {
        "from": "0xc15130dd56ce38b62afce618a66b963b9a86f75e",
        "to": "0x21aa0ecb3f3f54cd68f7982dc81c44e42e770fe3",
        "gas": "0x41037",
        "value": "0x0",
        "input": "0xfb37e88300000000000000000000000000000000000000000000000000000000000000200000000000000000000000000000000000000000000000000000000000000057697066733a2f2f62616679626569673337696f6972373673376d67356f6f6265746e636f6a636d3363336878617379643472766964346a71687934676b61686567342f3f66696c656e616d653d302d5055472e6a736f6e000000000000000000",
        "nonce": "0xf",
        "chainId": "0xaa36a7"
      },
      "additionalContracts": [],
      "isFixedGasLimit": false
    }
  ],
  "receipts": [
    {
      "status": "0x1",
      "cumulativeGasUsed": "0x149c3f4",
      "logs": [
        {
          "address": "0x21aa0ecb3f3f54cd68f7982dc81c44e42e770fe3",
          "topics": [
            "0xddf252ad1be2c89b69c2b068fc378daa952ba7f163c4a11628f55a4df523b3ef",
            "0x0000000000000000000000000000000000000000000000000000000000000000",
            "0x000000000000000000000000c15130dd56ce38b62afce618a66b963b9a86f75e",
            "0x0000000000000000000000000000000000000000000000000000000000000000"
          ],
          "data": "0x",
          "blockHash": "0x5ee16e15d57e261e52203a43a7223a44f2fe6d8adf8d8bcd2f04ca7f4eb62bcd",
          "blockNumber": "0x70cb73",
          "transactionHash": "0x31d209e3298935fd892997b2973f8e19cde36f0e49de1916757315976bbc3072",
          "transactionIndex": "0x9e",
          "logIndex": "0x15a",
          "removed": false
        }
      ],
      "logsBloom": "0x00000000000000000000000000000000000000000000000000000040000000000000000000000000000000000000000000000000000000000000000000000000000000000000000000000009000000000000000000000000000000000000000000000000020000000000000000000800000000000000000000000010000000000000000000000000000000000000000000000000000000000000000040000000020000000000000000000000000000000000000000000000000000000000000000000002000000000000000000000000000000000000000000000000000020000000000000000000000000080000000000000000000000040000000000000000",
      "type": "0x2",
      "transactionHash": "0x31d209e3298935fd892997b2973f8e19cde36f0e49de1916757315976bbc3072",
      "transactionIndex": "0x9e",
      "blockHash": "0x5ee16e15d57e261e52203a43a7223a44f2fe6d8adf8d8bcd2f04ca7f4eb62bcd",
      "blockNumber": "0x70cb73",
      "gasUsed": "0x2c743",
      "effectiveGasPrice": "0x165b55d40",
      "from": "0xc15130dd56ce38b62afce618a66b963b9a86f75e",
      "to": "0x21aa0ecb3f3f54cd68f7982dc81c44e42e770fe3",
      "contractAddress": null
    }
  ],
  "libraries": [],
  "pending": [],
  "returns": {},
  "timestamp": 1735643187,
  "chain": 11155111,
  "commit": "9188e91"
}